:02000004080AE8
:1000000000000A0880450A080000060006000501F5
:080010000402DE0500000000FF
:04001800683A0A0830
:1000200009480A4908B5884205D0094A824202D0E7
:10003000121A03F027FC0748074A0021121A03F09E
:100040002CFC064808BD00BF00000020C4440A087C
:1000500094000020940000209406002094060020C4
:1000600070B502F0F1F9074B074C1E46E41AA408DC
:100070000025A54204D056F8253098470135F8E709
:1000800070BD00BF7C440A08C0440A0800F02ABEC4
:1000900008B500F071FEBDE8084002F097B901F024
:1000A00029BA01F02FBA0078B0FA80F04009704701
:1000B000012303707047000010B502F093F85B2134
:1000C00001F08AFB02F08EF8044600F0D5FF0A2208
:1000D0000146204601F099FB02F084F8BDE810408B
:1000E000014901F075BB00BFD63A0A0808B501F016
:1000F00003F8034B1860BDE8084001F09BB900BF4E
:10010000A805002038B50B4B8469054603607CB117
:100110006368013B63605BB9236820469B6898472E
:10012000A368013BA3601BB923682046DB6898479E
:10013000284638BDF8410A0810B50446FFF7E2FF2B
:10014000204610BD10B50446FFF7DCFF20461C21F9
:1001500002F0BFFA204610BD03682BB142689342FB
:1001600002D2184603F078BB0020704738B5056806
:10017000044645B143689D4205D2284603F0C8FBBA
:10018000013005442560204638BDF8B504460F46C9
:10019000466821B90368721C42609955F8BD08464B
:1001A00003F0B6FBA368451CAA199A4208D8206838
:1001B0002A463946304403F065FB63681D44656098
:1001C000F8BD000070B504464068A66825680B4677
:1001D000044A311A284401F09DF96368013018443B
:1001E000606070BDD93A0A0870B504464068A668D8
:1001F00025680B46044A311A284401F08BF96368DC
:1002000001301844606070BDDC3A0A0808B501F09E
:10021000E9FF114901F0DCFA01F0E4FF0F4B022283
:10022000196801F0CBFB01F0DDFF0D4901F0D0FAB8
:1002300001F0D8FF0B4901F0CBFA01F0D3FF0A4BD4
:100240000222196801F0BAFB01F0CCFFBDE80840BA
:10025000064901F0BDBA00BFE03A0A089800002044
:10026000EB3A0A08EF3A0A089C000020FD3A0A0817
:1002700038B5054622B90368C9B29B68984702E0C1
:10028000D2B201F0C2FA0446284601F0A8FA20448E
:1002900038BD0000F0B5476B87B00446EFB1FFF7FB
:1002A0000BFF01F09FFF314901F092FA01F09AFF34
:1002B000616B01F08DFA01F095FF3A2101F08CFAA3
:1002C00001F090FF218F0A22FFF7D2FF0023228F37
:1002D000616B204601F054FE43E0FFF7EDFE01F0B4
:1002E00081FF224901F074FA01F07CFF0A2294F8A0
:1002F000231001F08AFA01F075FF2E2101F06CFA4B
:1003000001F070FF0A2294F8221001F07EFA01F049
:1003100069FF2E2101F060FA01F064FF0A2294F8CF
:10032000211001F072FA01F05DFF2E2101F054FA64
:1003300001F058FF254606460A2215F8201F01F055
:1003400064FA304601F04BFA094B01AE00930FCD31
:100350000FC62B68228F337069463B46204601F05A
:10036000D7FC431E5842584107B0F0BD023B0A0873
:100370009C400A0808B500234377006801F0AEFCF2
:10038000BDE8084000F07EBE2DE9F0418F188EB028
:10039000B94206460D4690460591069780F0F980D1
:1003A0000B8805A8ADF81230FFF7E0FE03689F4206
:1003B00040F2EF8005A8FFF7CFFE47F27622BDF8A6
:1003C0001230C4B2934200F09F800DD847F26122F0
:1003D000934265D047F26422934239D046F6705278
:1003E000934240F0BD802FE047F26472934241D0C7
:1003F00047F27672934200F0988047F2617293421E
:1004000040F0AE806DE005A8FFF7A6FEC5B205A8D6
:10041000FFF7ACFE059C6049204603F06FFA0146E9
:10042000002800F0B2805D49204603F067FA0028FA
:1004300000F0AA805A49204603F060FA002800F034
:10044000A38005A8FFF792FE059B9F42DBD8A0E0A2
:100450000AAB079307A81023002552490993089572
:10046000FFF793FE07A82146FFF7ACFE204602F0F7
:1004700063F826E005A8FFF779FE03689F4240F283
:100480008880A4B20121204602F02CF805A8FFF7CD
:1004900063FE011C18BF0121204602F034F878E009
:1004A0000AAB07934049102307A800250993089534
:1004B000FFF76BFE07A82146FFF784FE204602F0F7
:1004C0004EF8014607A8FFF78FFE2A46089B0295C3
:1004D000013B0093079B01951421304600F0E0FAA0
:1004E00057E005A8FFF742FE03689F4251D9A4B226
:1004F0000121204601F0F6FF05A8FFF72DFE014679
:10050000204602F043F844E00EAD204605F8104DB9
:1005100000F0BAFD0346284623B1244A934201D095
:10052000984736E000F0ACFD33E005A8FFF71EFE6B
:10053000059B20465D1BC5EB08050A930B950C95A2
:100540008DF81C4000F0AAFD03460AA907A823B1B4
:10055000174A934201D098471BE000F092FD18E043
:10056000FFF7AAFD01F03EFE124901F031F901F05A
:1005700039FE294601F03FF9002302210091728BD8
:10058000029301931946A8E70121284601F0AAFF2A
:1005900057E70EB0BDE8F081113B0A08B83B0A08E6
:1005A000143B0A08183B0A081B3B0A0881100A087A
:1005B00083100A081E3B0A082DE9F0438FB004AFF0
:1005C0000446052207F10C01006801F05DFA0028DD
:1005D00000F09A81052801D000209AE1B7F80D209B
:1005E000B7F80F50130A43EA02222B0A43EA052503
:1005F00092B2ADB2A7F80D20A7F80F50002AEBD0A9
:100600003B7B002B4FD100F037FD657FE060B7F8F2
:100610000F00002D43D1B7F80D30012B3FD1092831
:1006200024D0C82801D004282AD1FFF745FD01F0C5
:10063000D9FDBA4901F0CCF801F0D4FD6369E16855
:100640000A22C91A01F0E1F801F0CCFDB44901F029
:10065000D2F8E368012520466361657700F0DCFA93
:10066000FFF744FD00F00EFD284652E1FFF724FDA0
:1006700001F0B8FDAB4901F0BEF803236377ABE7A7
:10068000FFF71AFD01F0AEFDA74901F0A1F801F056
:10069000A9FD0A22B7F80F10FFF7EAFD9CE705381D
:1006A00018BF012035E1B5F5806F11D9FFF704FDC2
:1006B00001F098FD9D4901F08BF801F093FD0A22AD
:1006C000B7F80F10FFF7D4FD2046FFF753FE1BE1EC
:1006D00005F1080323F00703E846ADEB030D04AE74
:1006E0002A463146206801F0CFF985424FF00005D7
:1006F00040F00581B7F80F30F55400F0BDFC3B7BAE
:10070000E060112B00F09B8008D8062B2CD00F2B1B
:1007100000F08880022B40F0EE800BE01D2B09D00A
:1007200002D8142B7ED0E6E0292B29D0372B00F0FD
:10073000D280E0E0637F7BB9FFF7BEFC01F052FDA1
:100740007B4901F058F801236377204600F064FAF2
:10075000FFF7CCFC00F096FC0023C821B7F80D2071
:1007600002930193009106E0C823B7F80D2000938F
:100770002B46029501951946204600F091F9C0E0FC
:10078000A3681BB9202000F0B5FEA060B7F80F9059
:10079000FE61B1444E45C7F8209001D30020B1E07E
:1007A00020223146A06803F0BBF8A3680025DD775E
:1007B00007F11C00FFF7DAFC03684B4508D2F86923
:1007C00020B13B6A9842C0F0A180284685B200E083
:1007D0005025FFF771FC01F005FD564900F0F8FFC8
:1007E00001F000FDA16800F0F3FF01F0FBFC3A21ED
:1007F00000F0F2FF01F0F6FC0A222946FFF738FD6F
:10080000206801F06BFA2368A2681D875A630023F1
:10081000637700F031FCA0F59C5008382061E0605F
:1008200060616EE0FB68B7F80F20C3F30F236383AA
:1008300031462046FFF7A8FD0023638361E0B7F847
:100840000F303D7133449E427E61BB6159D23068A6
:10085000B86007F11400FFF789FC7A69B7F80F3028
:10086000961B9E1BFA61BB68334A3E6293427E62CE
:100870002BD00DD8314A93421BD002F500320332FF
:1008800093423ED107F11C01381D00F0FAFB38E01D
:100890002B4A934213D002F19F6202F5003202F517
:1008A000807293422DD107F11C01381D00F0E9FB45
:1008B00027E007F11C01381D00F0E3FB21E007F100
:1008C0001C01381D00F0DDFB1BE007F11C01381D89
:1008D00000F0D7FB15E0B7F80F3093B1FFF7ECFB52
:1008E00001F080FC174900F073FF01F07BFC3146FA
:1008F00000F081FF05E02046FFF73CFD01E02846BF
:1009000000E00120C54604E0012002E002F0A8FF5B
:100910005CE72C37BD46BDE8F08300BF2F3B0A08DB
:100920003D3B0A08423B0A08553B0A086C3B0A0853
:100930007D3B0A08833B0A086D6574616F74610032
:1009400061636F6E933B0A082DE9FF4104460D4633
:10095000FFF7CCFB637F022B00F08A80237F628B42
:100960000133DBB22377002A47D1022B45D8206818
:1009700001F075FA30B1002D7CD1206801F072F9D8
:10098000002877DC00F078FB0746206801F067FA62
:10099000657F0646012D32D128B967612046FFF7F1
:1009A000E9FC354660E044F63822E368FB1A9342DE
:1009B0000BD9FFF781FB01F015FC374900F01BFF55
:1009C0002046FFF7D7FC00254EE042F2107293421A
:1009D00003D82369FB1A93420FD940F6B8326369F2
:1009E000FB1A934209D900230293019300931A46FC
:1009F0000621204600F054F86761012534E0002DFF
:100A0000FBD16069381A7EB140F6B8339842F4D908
:100A1000FFF752FB01F0E6FB204900F0ECFE2068F6
:100A200001F05CF965771FE041F288339842E4D920
:100A3000206801F053F92068FFF72CFC054608B93F
:100A4000676111E0D4F8048001272783404602F053
:100A50005FFF43468DE8410002963A461D2120463D
:100A600000F01EF823696361237F013B23770EE0CA
:100A700000250CE02046FFF79FFD054600287FF487
:100A80007CAF206801F02AF900F0FCFAECE7284678
:100A900004B0BDE8F08100BF9C3B0A08AE3B0A08E9
:100AA0002DE9F04F83B0044600AF00688946164632
:100AB0009B463D6BEA4601F0D2F9002862D0B9F1BD
:100AC0001D0F05D8534B23FA09F3DB0700F19D8076
:100AD000637F012B56D116B9668B002E57D0A9F132
:100AE0000C03082B5BD9BBF1000F18BFA8467A6B2B
:100AF00008BF4FF00008002ABA6B08F1050314BFC5
:100B000090464FF00008984408F1070323F00703CC
:100B1000AA18ADEB030DC2F3072376BA43EA02230A
:100B2000C7F804D08DF80090ADF80160ADF803303F
:100B3000BBF1000F52D0002D50D02A4659460DF17E
:100B4000050002F09FFE681D7B6B002B48D100253D
:100B5000454551D2C5EB08027B68B2F5806F28BFCE
:100B60004FF480625919206800F0D9FF0646002032
:100B700000F080FA002E3DD1206801F0AFF86677D2
:100B800000F080FAD5460C37BD46BDE8F08F238BC8
:100B900001339BB203B901232383268B9FE7E368CC
:100BA0002269934238BF134603F1420800F064FA09
:100BB000C0EB080000280ADB00212046FFF7C4FE36
:100BC00000F05AFAC0EB08000028F5DA8BE7217F25
:100BD000002988D12046FFF7B7FE84E70520B3E758
:100BE000BB6B002BB3D01A467B68796B184402F0BC
:100BF00049FEACE73544ABE703D02046FFF7BAFB2C
:100C0000C0E700F039FA2061BCE7002E7FF46BAF3B
:100C100062E700BF4500002000B595B004AB00229C
:100C20000193502300930292034B1121FFF738FFE9
:100C300015B05DF804FB00BF843A0A082DE9F041C5
:100C40000D469046ADF5846D08AB0024064605932D
:100C500005A84FF48063154907930694FFF795FAAA
:100C6000294605A8FFF7AEFA069B0799059D404661
:100C7000CF1A1D4401F0F6FF0D4ACDE900013946B7
:100C8000284600F047FC069B0130184406900138C6
:100C9000009002940194059B224614213046FFF7F0
:100CA000FFFE0DF5846DBDE8F08100BFBC3B0A0876
:100CB000BF3B0A0808B5034B01211A680248FFF739
:100CC000BDFF08BD9C000020B400002008B5034B08
:100CD00002211A680248FFF7B1FF08BD9800002002
:100CE000B4000020F8B501F07DFA4FF4165101F080
:100CF0005FFA41F2883000F015FC40F6B83000F0A1
:100D0000B9F9194C194B42F22736636000F0B4F977
:100D1000A0F59C5008382061E0606061FFF7CCF9D5
:100D200001F060FA124900F066FD2368114A0025BF
:100D30005A6350221A87206800F0D0FF657700F0D0
:100D40009BF90746637F012B09D000F095F9C01B82
:100D5000B04204D800210448FFF7F6FDF2E7637FB4
:100D6000012BE8D1F8BD00BFB40000200000002036
:100D7000C53B0A085A3C0A0810B50A4C0021204617
:100D800000F042F9084B002211461860204600F09E
:100D9000E7F8064B1860FFF739FA00210448FFF71F
:100DA000D3FD10BDA0000020980000209C00002072
:100DB000B400002070B5124D00F0A6F9284601F0ED
:100DC000BDF805F11C00002400F020FC0D4A0E497E
:100DD00028466C632C8701F077FC0C4B0B221D60BE
:100DE0005C609C60DC601C615C611C835C831C77C4
:100DF0005C77042106230648BDE8704000F00AB87D
:100E0000D40000209400002039010A08B40000201A
:100E1000A00000208271054A417112680449B2FBAA
:100E2000F1F14FF47A724A43C26070472800002003
:100E300040420F0070B505460E460024687901F067
:100E40007BFBB04207D1EB68621C9C4201D2144686
:100E5000F4E7002070BD204670BD30B50D46D1B01E
:100E6000044600F049F935B9A368C31AB3F5FA6F1F
:100E700001D2207C71E000250121A06025716079FC
:100E8000E570A5706570257001F03DFBFA2000F05B
:100E900049FB0121607901F025FB2946607901F0C9
:100EA00032FB142000F03EFB00F08AFB0121607948
:100EB00001F029FB282000F017F90221607901F0E8
:100EC00011FB0A2000F010F929462046FFF7B2FF77
:100ED00028B90025257400F075FB28463DE0012166
:100EE0002046FFF7A7FF0028F3D000212046FFF798
:100EF000A1FF01214DF805002046FFF79BFF0DEBF8
:100F000005030835B5F5A07F5860EED100F05AFB17
:100F100000225DF832500DEBC203586805B108B9E4
:100F2000002019E0D110635C85424FEA4303DBB235
:100F300002F1010238BF43F00103282A6354E8D1CB
:100F40002278637821791344A2781344E278134419
:100F5000DBB29942E4D10120207451B030BD0000D1
:100F6000F8B50D4611460446FFF777FF00283CD040
:100F7000A3790B2B04D038D3153B012B06D934E0D1
:100F8000A07802F0C1FA034685B31FE0A67806F008
:100F90007F0002F0BDFA4FF0874102F00DFB0746DB
:100FA000E07802F0B5FA394602F0FEF901F05AFE97
:100FB0000FA3D3E9002301F0A9FE02F09FF9320646
:100FC000034648BF00F1004385B1184601F04AFED0
:100FD00009A3D3E9002301F099FE094B002201F097
:100FE000E3FC02F08BF9034600E0064B1846F8BD1F
:100FF0009A9999999999B93FCDCCCCCCCCCCFC3F5E
:10100000000040400000C07F38B500210446FFF7D3
:1010100024FF10B3A3790B2B1BD01ED3153B012B40
:101020001BD8207802F070FA4FF0874102F0C4FA22
:101030000546607802F06CFA294602F0B5F901F035
:1010400011FE07A3D3E9002301F060FE02F056F978
:1010500038BD207802F058FA38BD034838BD00BFCB
:101060009A9999999999B93F0000C07F00F04CB8BE
:1010700000F04AB800F056BA00F03EB800F044B8AC
:1010800070477047704700007F289ABF024B53F8A3
:1010900020000020704700BF6C3E0A087F289ABFDE
:1010A000024B53F820000020704700BF6C3C0A0838
:1010B00000F02AB800F028B808B5024B1B685B6C3A
:1010C000019308BDD001060808B5024B1B689B6C54
:1010D000019308BDD001060808B5024B1B685B6888
:1010E000019308BD9C01060808B5024B1B68DB682C
:1010F000019308BD9C01060808B5024B1B685B699B
:10110000019308BD9C01060808B5024B1B681B68CB
:10111000019308BDB001060808B5024B1B685B6867
:10112000019308BDB001060808B5024B1B689B6817
:10113000019308BDB001060808B5024B1B68DB68C7
:10114000019308BDB001060808B5024B1B681B6976
:10115000019308BDB001060808B5024B1B685B6926
:10116000019308BDB001060808B5024B1B681B6A55
:10117000019308BDB001060808B5024B1B685B6A05
:10118000019308BDB001060808B5024B1B689B6AB5
:10119000019308BDB001060808B5024B1B681B6B24
:1011A000019308BDB001060808B5024B1B689B6F90
:1011B000019308BDB001060808B5024B1B681B6E01
:1011C000019308BDAC01060808B5024B1B685B6EB5
:1011D000019308BDAC01060808B5024B1B689B6E65
:1011E000019308BDAC01060808B5024B1B68DB6E15
:1011F000019308BDAC01060808B5024B1B681B6FC4
:10120000019308BDAC01060808B5024B1B685B6F73
:10121000019308BDAC01060808B5034B1B68D3F861
:101220008030019308BD0000AC01060808B5024BF0
:101230001B681B68019308BDBC01060808B5024B7A
:101240001B685B68019308BDBC01060808B5024B2A
:101250001B689B68019308BDBC01060808B5024BDA
:101260001B68DB68019308BDBC01060808B5024B8A
:101270001B681B69019308BDBC01060808B5024B39
:101280001B681B6A019308BDBC01060808B5024B28
:101290001B681B6B019308BDBC01060808B5024B17
:1012A0001B685B6C019308BDBC01060808B5024BC6
:1012B0001B68DB69019308BDB401060808B5024B41
:1012C0001B681B6A019308BDB401060808B5024BF0
:1012D0001B689B69019308BDC401060808B5024B51
:1012E0001B685B6A019308BDC401060808B5024B80
:1012F0001B689B6A019308BDC401060808B5024B30
:101300001B68DB6A019308BDC401060808B5024BDF
:101310001B681B6B019308BDC401060808B5024B8E
:101320001B685B6B019308BDC401060808B5024B3E
:101330001B689B6B019308BDC401060808B5024BEE
:101340001B681B6C019308BDC401060808B5024B5D
:101350001B681B68019308BDD801060808B5024B3D
:101360001B685B68019308BDD801060808B5024BED
:101370001B681B69019308BDD801060808B5024B1C
:101380001B685B69019308BDD801060808B5024BCC
:101390001B689B69019308BDD801060808B5024B7C
:1013A0001B68DB69019308BDD801060808B5024B2C
:1013B0001B681B6A019308BDD801060808B5024BDB
:1013C0001B685B6C019308BDC001060808B5024BA1
:1013D0001B689B6C019308BDC001060808B5024B51
:1013E0001B681B6D019308BDA801020808B5024BDC
:1013F0001B685B68019308BDA401060808B5024B91
:101400001B685B69019308BDA401060808B5034B7E
:101410001B68D3F89030019308BD0000A4010608B2
:1014200008B5034B1B68D3F89C30019308BD00003E
:10143000A401060808B5024B1B689B68019308BD10
:10144000CC01060808B5024B1B68DB6B019308BD95
:10145000CC01060808B5024B1B685B68019308BD08
:10146000C801060808B5024B1B689B68019308BDBC
:10147000C801060808B5024B1B68DB68019308BD6C
:10148000C801060808B5024B1B681B69019308BD1B
:10149000C801060808B5024B1B685B69019308BDCB
:1014A000C801060808B5024B1B689B69019308BD7B
:1014B000C801060808B5024B1B68DB69019308BD2B
:1014C000C801060808B5024B1B681B6A019308BDDA
:1014D000C801060808B5024B1B681B6B019308BDC9
:1014E000C801060808B5024B1B685B6B019308BD79
:1014F000C801060808B5024B1B681B68019308BDAC
:10150000A001060808B5024B1B685B68019308BD83
:10151000A001060808B5024B1B68DB69019308BDF2
:10152000A00106080021FFF769BF10B583680446D3
:1015300013B1032201469847204610BD7047F8B505
:10154000064615460C468F18BC4206D0336814F880
:10155000011B9B6830469847F6E72846F8BD0022F5
:10156000007CFFF729BE0021007CFFF72DBE002183
:10157000007CFFF731BE0021007CFFF735BE002163
:10158000007CFFF739BE10B50446142101F0A1F824
:10159000204610BD10B50446002363604FF47A73F3
:1015A000A360044B2174084623601146FFF734FE04
:1015B000204610BD74400A080021007CFFF724BEBD
:1015C000FFF7DABDFFF7D0BD704710B5044618210C
:1015D00001F07FF8204610BDF8B50F4600F108066F
:1015E000051D002416F8011D0A22384600F00DF9E9
:1015F000AE42044407D0002CF4D02E21384600F02F
:10160000EBF80444EEE72046F8BD000010B50446B0
:10161000044B112240F8043B002102F03EF9204621
:1016200010BD00BF9C400A080346074A10B543F8A6
:10163000042B01F1100251F8044B914243F8044B82
:10164000F9D10A781A7010BD9C400A08024A41601C
:1016500002600422027570479C400A0810B59DF88C
:10166000084044EA032343EA024242EA01610423B8
:101670004160037510BD000037B5044D05609DF84D
:1016800018500095FFF7EAFF03B030BD9C400A08F0
:10169000014A024B1A6070471E410A0810010020DF
:1016A00000231A464068FFF7D5BE00220221406899
:1016B000FFF7E0BE002211464068FFF7D3BE0022CC
:1016C00011464068FFF7DEBE00231A4619464068FF
:1016D000FFF7E0BE00231A4619464068FFF7E2BE56
:1016E000002281F001014068FFF7E4BE002240685B
:1016F000FFF7F0BE002211464068FFF7F3BE00225C
:1017000011464068FFF7DEBE70B516468EB004463F
:1017100008A8FFF77BFF1122002103A802F0BDF803
:10172000304602F0F5F800250A4B009581B25B685F
:1017300003AA3046FFF74AFE20B129462046FFF7AC
:1017400085FF03E003A92046FFF76EFF20460EB099
:1017500070BD00BF98050020034B044A04280CBF4D
:1017600010461846704700BF14010020980500205D
:10177000024B034A1A6000225A607047140100208D
:101780008C410A08F8B506460D468F180024BD4264
:101790000CD0336815F8011B9B6830469847002829
:1017A00001DB0444F3E7002C08BF04462046F8BDE3
:1017B00070B505460C46084649B102F0A9F82B68F9
:1017C000024621462846BDE87040DB68184770BDD8
:1017D00008B5FFF7EDFF08BD03689B68184738B5EB
:1017E0000D210546FFF7F8FF0A2104462846FFF7BA
:1017F000F3FF204438BD38B50546FFF7D9FF04464E
:101800002846FFF7ECFF204438BD012A98BF0A2282
:1018100030B50B468BB000218DF824100DF1230458
:10182000B3FBF2F505FB1233DBB2092B94BF303367
:101830003733DBB2214604F801392B46002DEFD1B6
:10184000FFF7B6FF0BB030BD2DE9F04719468046D3
:10185000104617461E469DF8205001F0F1FC08B1D5
:101860004D4912E026F000444FF0FF324B4B384612
:10187000214601F0E5FC68B94FF0FF32474B38468E
:10188000214601F0BFFC28B945494046FFF790FFCB
:10189000BDE8F0874FF06042424B3846314601F0D8
:1018A000C5FC08B14049F0E74FF060423F4B384675
:1018B000314601F09DFC0028F4D100220023384677
:1018C000314601F095FC38B12D214046FFF784FFE9
:1018D00006F10046044600E0044635494FF0000991
:1018E00000205FFA89F39D4206D90022314B01F0B6
:1018F00037FB09F10109F4E73A46334601F054F8A1
:101900000F46064601F0DAFC0A22014681464046AF
:10191000FFF77BFF0444E5B3484601F081F9024636
:101920000B463046394601F03DF806460F46404624
:101930002149FFF73DFF044400221E4B3046394643
:1019400001F0E4F906460F4601F090FCB0F1000A00
:1019500007DA2D214046FFF73FFFCAF1000181461B
:1019600002E051464FF000090A224046FFF74DFFC2
:1019700048440444504601F063F902460B463046A1
:10198000394601F00FF8013D15F0FF0506460F46F8
:10199000D2D12046BDE8F087B8410A08FFFFEF7FAB
:1019A000C0410A08FFFFEF41BC410A08FFFFEFC139
:1019B0000000E03F00002440403B0A0837B50546E0
:1019C0001446084601F04EF9E4B2024600940B4674
:1019D0002846FFF739FF03B030BD10B50446FFF7C6
:1019E000A4FD204610BD0000034800238360034A85
:1019F000034900F069BE00BF1C01002094000020D4
:101A0000DB190A0810B5044B04460360C06808B12E
:101A1000FFF75AFB204610BDCC410A0810B504461A
:101A2000FFF7F0FF2046102100F053FE204610BDC6
:101A300070B504460E46074B0025036040F80C5F66
:101A4000FFF73AFB30462671FFF730FCA5602046D1
:101A500070BD00BFCC410A080079FFF72FBC10B55C
:101A60000446FFF749FBE060236820465B6998471E
:101A7000002808DAFFF740FBE368C01AA368984221
:101A8000F2D34FF0FF3010BD2DE9F04180460D46F6
:101A90000C468F18BC42A4EB050607D04046FFF762
:101AA000DEFF002802DB04F8010BF3E73046BDE857
:101AB000F08110B50446006818B1FFF723FD00233C
:101AC000236010BD10B50446FFF7F3FF204610BD9C
:101AD0004FF6FF7310B5084C00202060A080A07165
:101AE00020816381FFF782FC2046BDE81040034A55
:101AF000034900F0E9BD00BF2C0100209400002044
:101B0000C51A0A0837B502AC036804F8011DDD6B7D
:101B1000012247F230532146A84703B030BD10B42C
:101B20000368DC6B47F23053A44610BC604737B5FE
:101B300002AC036804F8011DDD6B21461346012247
:101B4000A84703B030BD704770470020704710B5FC
:101B50000446142100F0BDFD204610BDFEF7A1BAD9
:101B600010B5044603689B689847A368013BA360CF
:101B70002BB923682046BDE81040DB68184710BD2C
:101B800070B5044606464D69044B8C3544F8043B59
:101B90000FCD0FC42B683046237070BD9C400A08DF
:101BA00010B543690446B3F88620B3F884309A42EE
:101BB00005D06269B2F884301344187910BD036807
:101BC0001B6998470028F4D14FF0FF3010BD10B5C5
:101BD00043690446B3F88620B3F884309A4208D0AB
:101BE0006269B2F88430591CA2F884101344187941
:101BF00010BD03681B6998470028F1D14FF0FF30F2
:101C000010BDF8B543691746B3F88620B3F88430A1
:101C100005469A420E4606D103681B69984710B9DB
:101C20004FF0FF3414E069693046B1F88430B1F800
:101C300086401944E41ABC4228BF3C46043122467F
:101C400001F020FE6A69B2F884302344A2F884309F
:101C50002046F8BD42690023A2F884304269A2F808
:101C60008630704738B542690446B2F886301BB1F9
:101C7000B2F884209A420CD02069FFF76DFD03680A
:101C8000DB68984718B363691868FFF7D7FA18B983
:101C90001DE0FFF7DFFFEFE76069B0F886107F29EE
:101CA00015D8051DC1F18002002329440068FFF703
:101CB000DDFA00280BDD6369B3F886200AB9A3F8C2
:101CC00084206269B2F886301844A2F886006269FE
:101CD000B2F88630B2F88400181A38BD38B54369B6
:101CE00004461868FFF7AAFA18B163691868FFF785
:101CF000C5FA6569FFF7CAFA2860606911220021F8
:101D00008C3001F0CAFD2046BDE83840FFF7A2BF85
:101D10002DE9F0411F4603688AB0DB6A06460C468F
:101D2000154698473846FFF717FD0368DB68984764
:101D3000002856D000972B46062201210220D6F813
:101D40001480FFF783FA2023C8F8000000270293CD
:101D5000736903971B6801200193234B02AA009328
:101D600022493B46FFF73AFB73691868FFF766FAAA
:101D7000002836D03046FFF76DFF0223ADF808305B
:101D80002B0A8DF80A30E3794FF4FA508DF80C30B5
:101D9000A3798DF80B508DF80D3063798DF80E30E6
:101DA00014F8043F8DF80F30FFF708FB7369054600
:101DB000102202A91868FFF751FA80462846FFF75B
:101DC000FDFA0FCC75698C350FC523682B70B8F1FF
:101DD000000F05D033683046DB6A9847384600E08C
:101DE00001200AB0BDE8F08143420A083C420A08DB
:101DF00010B5436904461868FFF720FA08B90020B7
:101E000010BD2069FFF7A8FC0368DB68984700282D
:101E1000F5D063691868FFF709FAB0FA80F0400955
:101E200010BD2DE9F3410025456004460E461746D6
:101E30009846FFF7DDFF60B160690195CDF800803D
:101E40002B463A4631460068FFF728FA002803DAA5
:101E500001E04FF0FF30606002B0BDE8F08138B5BE
:101E60000446FFF7C5FF00BB6369B3F88610B3F8FB
:101E70008420914219D11868FFF7E0F928B163690D
:101E80001868FFF7D3F9012801D000250EE0236878
:101E900020461B699847002814BF0125002505D15D
:101EA00023682046DB6A984700E00125284638BDB4
:101EB00008B5FFF79DFF003018BF012008BD10B521
:101EC000044600230160A0F88430A0F886308830F2
:101ED000FFF79CFB204610BD4FF47A7270B582600C
:101EE000144A002343600260436183610446A020DA
:101EF0000E46FEF7D4F8054610B13146FFF7DFFF76
:101F00001420FEF7CCF8034628B10122426082601B
:101F1000094A05610260A0696561A36128B143684F
:101F2000013B43600BB9FFF71BFE2046FFF792FE13
:101F3000204670BDF8410A08DC410A0810B5044685
:101F4000FFF7A4F901462046FFF7C6FF204610BD63
:101F500010B504460068FFF771F910B12068FFF76B
:101F60008DF9204610BD10B504692046FFF7F0FF3B
:101F700024B12046BDE81040FEF793B810BD000024
:101F80002DE9F0431F4603688FB0DB6A06460D4615
:101F9000904698471348FFF792FB00B302A8FFF75B
:101FA00035FB284601F0B4FC002481B200943B4686
:101FB00003AA2846FFF70AFA80B9336809ADD3F8B7
:101FC0002090094B03AC08930FCC0FC52368424601
:101FD0002B7008A93B463046C84700E020460FB0AA
:101FE000BDE8F083140100209C400A08024B1A68E7
:101FF000024B1A60704700BF240000203801002007
:1020000070474174704708B5007CFFF797F920EAE4
:10201000E07008BD08B5007CFFF768F920EAE070C1
:1020200008BD08B5007CFFF771F930EA200028BF31
:102030004FF0FF3008BD08B5007CFFF75FF930EACC
:10204000200028BF4FF0FF3008BD007CFFF766B9C5
:1020500010B50446142100F03CFB204610BD70B5BD
:10206000457C04460E4625B9007CFFF767F9002839
:1020700005DD3146207CBDE87040FFF72FB92846CA
:1020800070BD000010B5044608461146002262608B
:102090004FF47A72A260054A2074226001226274B1
:1020A0001A46FFF713F9204610BD00BF88420A0800
:1020B000007CFFF73BB9000038B50C4D296811F0E2
:1020C000010411D12846FDF7EEFF68B1084A214608
:1020D000084B0948FFF7D6FF2846FDF7E9FF074AF6
:1020E0000749054800F0F0FA034838BDD401002044
:1020F000D8010020500100203C0100209400002065
:1021000001200A0841747047704708B50021007C1F
:10211000FFF73CF930EA200028BF4FF0FF3008BD40
:1021200008B50121007CFFF731F930EA200028BF13
:102130004FF0FF3008BD08B5007CFFF71FF920EA1B
:10214000E07008BD08B5007CFFF710F920EAE070E8
:1021500008BD007CFFF72AB910B50446142100F031
:10216000B8FA204610BD38B50446007C0D46FFF78E
:1021700005F9002801DC607C28B12946207CFFF7A6
:102180000DF920EAE07038BD10B504460023636005
:102190004FF47A73A360054B084623600123217432
:1021A00063741146FFF7D2F8204610BDB8420A0802
:1021B0000022007CFFF7D2B810B50446142200219B
:1021C00001F06BFB054B20466360054BE36040F27A
:1021D000011323818123238210BD00BFE10200206F
:1021E0006002002030B50E4D87B001A8FFF7E4FF74
:1021F000296811F0010410D12846FDF754FF60B1A1
:1022000001AA21460748FFF7BFFF2846FDF750FF08
:10221000054A0649034800F057FA024807B030BDA6
:102220005C020020E40300209400002009210A0839
:1022300010B504461422002101F02FFB054B204667
:102240006360054BE36040F2011323818123238205
:1022500010BD00BF94040020FC03002010B50E4CFC
:1022600086B001A8FFF7E4FF2368DB0710D42046FF
:10227000FDF719FF60B101AA01210848FFF784FFAB
:102280002046FDF715FF064A0649044800F01CFAEF
:10229000024806B010BD00BFF803002080040020F3
:1022A0009400002009210A08002211464068FFF727
:1022B000E9B8F0B5164689B011220F460446002150
:1022C00003A801F0EAFA304601F022FB0025009550
:1022D00081B27B6803AA3046FFF778F820B129461F
:1022E0002046FFF7B3F903E003A92046FFF79CF966
:1022F000204609B0F0BD002211464068FFF7E2B861
:10230000002211464068FFF7EDB800224068FFF751
:10231000E1B8002281F001014068FFF7CBB800234B
:102320001A4619464068FFF7BDB800231A461946F9
:102330004068FFF7AFB8002211464068FFF792B837
:10234000002202214068FFF795B800231A46406832
:10235000FFF780B8024B04225A60024A1A607047A5
:1023600098050020E8420A0808B5144B33B1FFF77E
:1023700039FF03681B699847002816DC104B33B1FE
:10238000FFF79AFE03681B699847002810DC0D4B85
:102390000BB1AFF300800C4B7BB1FFF75FFF03681D
:1023A0001B699847002806DC08BDAFF30080E5E70D
:1023B000AFF30080EBE7AFF3008008BD0000000042
:1023C00000000000000000000000000008B5FFF75A
:1023D000CBFFFEF791FE014B186008BDA805002059
:1023E0000248034A0349121A01F04CBA0040024065
:1023F00004400240C0440A0807B5002300931A466F
:102400006FF07701FFF70CF803B05DF804FB0000F4
:1024100007B543880A2B08D0502B09D1094B1B68FC
:102420003BB103B05DF804EB1847FFF7E5FF06E0AA
:10243000002300931A466FF07701FEF7F1FF03B017
:102440005DF804FBA005002038B5104C104D236842
:10245000AB42104B0CBF012200221A7002D0FFF7D2
:10246000BFFF2560FEF738FE044601F01FFA0A4B55
:1024700013B12046AFF3008000210748FEF7E2FFCA
:10248000BDE8384000210548FEF7C0BF00400240CB
:102490001E1C279AA40500200000000011240A0831
:1024A00010B5044600F0F0F8FFF7D6FA28B1A4F111
:1024B0000D03022B01D8002010BD00F0A7F8FFF794
:1024C0007BF808B1012CF6D9FFF7F6FDFFF7F0FD18
:1024D00018B1A4F11203012BEDD9172C8CBF0020E9
:1024E000012010BD172838B504460D460AD8FF292B
:1024F00008D0FFF7D5FF28B129462046BDE838406F
:10250000FEF712BE38BD38B504460D46FEF714FE80
:10251000FF2810D0062804D84D2323FA00F0C30763
:1025200009D42046FFF7BCFF28B129462046BDE864
:102530003840FEF709BE38BD10B50446FEF7FCFD75
:102540000438C0B2012808D92046FFF7A9FF20B1FE
:102550002046BDE81040FEF7FFBD002010BD10B5BD
:10256000044609289CBF0A34A4B22046FFF798FF0E
:1025700050B103212046FEF7CFFD032804D12046A9
:10258000BDE81040FEF708BE002010BD38B5044677
:102590000D46FFF785FFF0B104212046FEF7BCFD94
:1025A000042805D1A9B22046BDE83840FEF7ECBDAD
:1025B00002212046FEF7B0FD02280CD12046FEF78E
:1025C000BBFD012801D0042805D129462046BDE8DD
:1025D0003840FEF7E9BD38BD70B5044614252A46DB
:1025E000094E002101F059F9258020253146A560CA
:1025F0002561284600F087F831466060284600F0E3
:1026000082F8E060204670BD14430A0830B50E4DD4
:1026100087B0296811F0010413D12846FDF743FD66
:1026200078B101A8FFF7D8FF01AA21460748FEF7B5
:10263000B1FF2846FDF73CFD054A0649034800F076
:1026400043F8024807B030BDAC050020B0050020BB
:10265000940000203D150A0813B5084C00231A46C3
:10266000194600932046FFF707F82046044A05491B
:1026700002B0BDE8104000F027B800BFC40500203C
:1026800094000020C9150A0838B50B4D296811F0CF
:1026900001040FD12846FDF706FD58B12146074831
:1026A000FFF7C6F92846FDF703FD054A054903482B
:1026B00000F00AF8014838BDEC050020DC050020D8
:1026C00094000020051A0A080B460146184601F03E
:1026D000CBB8FDF7E6BC0000024B1868BFF35F8F74
:1026E000704700BFF005002010B5002814BF044655
:1026F00001242046FEF7FEFE20B9FFF7EDFF08B1EA
:102700008047F6E710BDFFF7EFBF0000244B1A68C3
:10271000D0075CBF01221A60224B1A68D1075CBF48
:1027200001221A60204B1A68D2075CBF01221A608E
:102730001E4B1A68D0075CBF01221A601C4B1A6836
:10274000D1075CBF01221A601A4B1A68D2075CBF1E
:1027500001221A60184B1A68D0075CBF01221A6068
:10276000164B1A68D1075CBF01221A60144B1A6815
:10277000D2075CBF01221A60124B1A68D0075CBFF7
:1027800001221A60104B1A68D1075CBF01221A603F
:102790000E4B1A68D2075CBF01221A60704700BF57
:1027A000200600201C060020180600201406002029
:1027B000100600200C060020080600200406002059
:1027C00000060020FC050020F8050020F40500208C
:1027D000184B1A68D1075CBF01221A60164B1A68A1
:1027E000D2075CBF01221A60144B1A68D0075CBF85
:1027F00001221A60124B1A68D1075CBF01221A60CD
:10280000104B1A68D2075CBF01221A600E4B1A687F
:10281000D0075CBF01221A600C4B1A68D1075CBF5D
:1028200001221A600A4B1A68D2075CBF01221A60A3
:10283000704700BF400600203C06002038060020FC
:1028400034060020300600202C0600202806002038
:1028500024060020184B1A68D1075CBF01221A60B9
:10286000164B1A68D2075CBF01221A60144B1A6813
:10287000D0075CBF01221A60124B1A68D1075CBFF7
:1028800001221A60104B1A68D2075CBF01221A603D
:102890000E4B1A68D0075CBF01221A600C4B1A68F5
:1028A000D1075CBF01221A600A4B1A68D2075CBFCD
:1028B00001221A60704700BF600600205C060020FD
:1028C0005806002054060020500600204C06002028
:1028D0004806002044060020244B1A68D0075CBF3D
:1028E00001221A60224B1A68D1075CBF01221A60CC
:1028F000204B1A68D2075CBF01221A601E4B1A686F
:10290000D0075CBF01221A601C4B1A68D1075CBF5C
:1029100001221A601A4B1A68D2075CBF01221A60A2
:10292000184B1A68D0075CBF01221A60164B1A6850
:10293000D1075CBF01221A60144B1A68D2075CBF32
:1029400001221A60124B1A68D0075CBF01221A607C
:10295000104B1A68D1075CBF01221A600E4B1A682F
:10296000D2075CBF01221A60704700BF90060020AA
:102970008C060020880600208406002080060020A7
:102980007C060020780600207406002070060020D7
:102990006C060020680600206406002081F00041DB
:1029A00002E000BF83F0004330B54FEA41044FEA34
:1029B000430594EA050F08BF90EA020F1FBF54EACF
:1029C000000C55EA020C7FEA645C7FEA655C00F06B
:1029D000E2804FEA5454D4EB5555B8BF6D420CDD3C
:1029E0002C4480EA020281EA030382EA000083EABF
:1029F000010180EA020281EA0303362D88BF30BD5F
:102A000011F0004F4FEA01314FF4801C4CEA1131B4
:102A100002D0404261EB410113F0004F4FEA033313
:102A20004CEA133302D0524263EB430394EA050F9E
:102A300000F0A780A4F10104D5F1200E0DDB02FA0D
:102A40000EFC22FA05F2801841F1000103FA0EF2A1
:102A5000801843FA05F359410EE0A5F120050EF167
:102A6000200E012A03FA0EFC28BF4CF0020C43FA98
:102A700005F3C01851EBE37101F0004507D54FF0A5
:102A8000000EDCF1000C7EEB00006EEB0101B1F5F5
:102A9000801F1BD3B1F5001F0CD349085FEA30003B
:102AA0004FEA3C0C04F101044FEA445212F5800F46
:102AB00080F09A80BCF1004F08BF5FEA500C50F1E3
:102AC000000041EB045141EA050130BD5FEA4C0CC6
:102AD000404141EB010111F4801FA4F10104E9D14F
:102AE00091F0000F04BF01460020B1FA81F308BF46
:102AF0002033A3F10B03B3F120020CDA0C3208DD12
:102B000002F1140CC2F10C0201FA0CF021FA02F1EC
:102B10000CE002F11402D8BFC2F1200C01FA02F15C
:102B200020FA0CFCDCBF41EA0C019040E41AA2BF81
:102B300001EB0451294330BD6FEA04041F3C1CDA49
:102B40000C340EDC04F11404C4F1200220FA04F069
:102B500001FA02F340EA030021FA04F345EA030113
:102B600030BDC4F10C04C4F1200220FA02F001FAD5
:102B700004F340EA0300294630BD21FA04F0294657
:102B800030BD94F0000F83F4801306BF81F48011F0
:102B90000134013D4EE77FEA645C18BF7FEA655C63
:102BA00029D094EA050F08BF90EA020F05D054EA35
:102BB000000C04BF1946104630BD91EA030F1EBF3A
:102BC0000021002030BD5FEA545C05D1400049413E
:102BD00028BF41F0004130BD14F580043CBF01F531
:102BE000801130BD01F0004545F0FE4141F4700117
:102BF0004FF0000030BD7FEA645C1ABF19461046F2
:102C00007FEA655C1CBF0B46024650EA013406BFF2
:102C100052EA033591EA030F41F4002130BD00BFB1
:102C200090F0000F04BF0021704730B54FF480646E
:102C300004F132044FF000054FF0000150E700BFEF
:102C400090F0000F04BF0021704730B54FF480644E
:102C500004F1320410F0004548BF40424FF000013B
:102C60003EE700BF42004FEAE2014FEA31014FEA7E
:102C700002701FBF12F07F4393F07F4F81F06051CD
:102C8000704792F0000F14BF93F07F4F704730B53C
:102C90004FF4607401F0004521F0004120E700BFCF
:102CA00050EA010208BF704730B54FF000050AE056
:102CB00050EA010208BF704730B511F0004502D557
:102CC000404261EB41014FF4806404F132045FEA59
:102CD000915C3FF4DCAE4FF003025FEADC0C18BFFE
:102CE00003325FEADC0C18BF033202EBDC02C2F1F4
:102CF000200300FA03FC20FA02F001FA03FE40EA86
:102D00000E0021FA02F11444C1E600BF70B54FF085
:102D1000FF0C4CF4E06C1CEA11541DBF1CEA135567
:102D200094EA0C0F95EA0C0F00F0DEF82C4481EACF
:102D3000030621EA4C5123EA4C5350EA013518BFEF
:102D400052EA033541F4801143F4801338D0A0FBDC
:102D500002CE4FF00005E1FB02E506F00042E0FB89
:102D600003E54FF00006E1FB03569CF0000F18BF8F
:102D70004EF0010EA4F1FF04B6F5007F64F5407437
:102D800004D25FEA4E0E6D4146EB060642EAC621CA
:102D900041EA55514FEAC52040EA5E504FEACE2E37
:102DA000B4F1FD0C88BFBCF5E06F1ED8BEF1004F3A
:102DB00008BF5FEA500E50F1000041EB045170BDB6
:102DC00006F0004646EA010140EA020081EA0301FA
:102DD000B4EB5C04C2BFD4EB0C0541EA045170BDF6
:102DE00041F480114FF0000E013C00F3AB8014F170
:102DF000360FDEBF002001F0004170BDC4F10004B9
:102E0000203C35DA0C341BDC04F11404C4F1200539
:102E100000FA05F320FA04F001FA05F240EA020094
:102E200001F0004221F0004110EBD37021FA04F6CA
:102E300042EB06015EEA430E08BF20EAD37070BD84
:102E4000C4F10C04C4F1200500FA04F320FA05F0E3
:102E500001FA04F240EA020001F0004110EBD370E5
:102E600041F100015EEA430E08BF20EAD37070BD55
:102E7000C4F1200500FA05F24EEA020E20FA04F32E
:102E800001FA05F243EA020321FA04F001F00041DD
:102E900021FA04F220EA020000EBD3705EEA430E4E
:102EA00008BF20EAD37070BD94F0000F0FD101F07D
:102EB0000046400041EB010111F4801F08BF013CB6
:102EC000F7D041EA060195F0000F18BF704703F0F4
:102ED0000046520043EB030313F4801F08BF013D7B
:102EE000F7D043EA0603704794EA0C0F0CEA135537
:102EF00018BF95EA0C0F0CD050EA410618BF52EAF1
:102F00004306D1D181EA030101F000414FF00000F6
:102F100070BD50EA410606BF1046194652EA430604
:102F200019D094EA0C0F02D150EA013613D195EA78
:102F30000C0F05D152EA03361CBF104619460AD1C0
:102F400081EA030101F0004141F0FE4141F47001CA
:102F50004FF0000070BD41F0FE4141F4780170BDBA
:102F600070B54FF0FF0C4CF4E06C1CEA11541DBF1F
:102F70001CEA135594EA0C0F95EA0C0F00F0A7F821
:102F8000A4EB050481EA030E52EA03354FEA01314E
:102F900000F088804FEA03334FF0805545EA131361
:102FA00043EA12634FEA022245EA111545EA106529
:102FB0004FEA00260EF000419D4208BF964244F1C0
:102FC000FD0404F5407402D25B084FEA3202B61ADF
:102FD00065EB03055B084FEA32024FF480104FF4B3
:102FE000002CB6EB020E75EB030E22BFB61A754627
:102FF00040EA0C005B084FEA3202B6EB020E75EBBA
:10300000030E22BFB61A754640EA5C005B084FEA21
:103010003202B6EB020E75EB030E22BFB61A7546EE
:1030200040EA9C005B084FEA3202B6EB020E75EBF9
:10303000030E22BFB61A754640EADC0055EA060EBA
:1030400018D04FEA051545EA16754FEA06164FEAFD
:10305000C30343EA52734FEAC2025FEA1C1CC0D1A9
:1030600011F4801F0BD141EA00014FF000004FF036
:10307000004CB6E711F4801F04BF01430020B4F1F7
:10308000FD0C88BFBCF5E06F3FF6AFAEB5EB030CAF
:1030900004BFB6EB020C5FEA500C50F1000041EBAC
:1030A000045170BD0EF0004E4EEA113114EB5C0479
:1030B000C2BFD4EB0C0541EA045170BD41F480114C
:1030C0004FF0000E013C90E645EA060E8DE60CEA54
:1030D000135594EA0C0F08BF95EA0C0F3FF43BAF71
:1030E00094EA0C0F0AD150EA01347FF434AF95EA28
:1030F0000C0F7FF425AF104619462CE795EA0C0F0C
:1031000006D152EA03353FF4FDAE1046194622E7D8
:1031100050EA410618BF52EA43067FF4C5AE50EAB2
:1031200041047FF40DAF52EA43057FF4EBAE12E7A2
:103130004FF0FF3C06E000BF4FF0010C02E000BF83
:103140004FF0010C4DF804CD4FEA410C7FEA6C5C66
:103150004FEA430C18BF7FEA6C5C1BD001B050EA09
:10316000410C0CBF52EA430C91EA030F02BF90EAF4
:10317000020F0020704710F1000F91EA030F58BFB3
:10318000994208BF90422CBFD8176FEAE37040F015
:10319000010070474FEA410C7FEA6C5C02D150EAB3
:1031A000013C07D14FEA430C7FEA6C5CD6D152EA6E
:1031B000033CD3D05DF8040B704700BF8446104633
:1031C00062468C461946634600E000BF01B5FFF732
:1031D000B7FF002848BF10F1000F01BD4DF808ED02
:1031E000FFF7F4FF0CBF012000205DF808FB00BFD3
:1031F0004DF808EDFFF7EAFF34BF012000205DF82D
:1032000008FB00BF4DF808EDFFF7E0FF94BF012079
:1032100000205DF808FB00BF4DF808EDFFF7CEFF7A
:1032200094BF012000205DF808FB00BF4DF808EDB9
:10323000FFF7C4FF34BF012000205DF808FB00BF8A
:103240004FEA410C7FEA6C5C02D150EA013C0AD1A2
:103250004FEA430C7FEA6C5C02D152EA033C02D194
:103260004FF0000070474FF0010070474FEA4102F5
:1032700012F5001215D211D56FF47873B3EB6252C8
:1032800012D94FEAC12343F0004343EA505311F0EF
:10329000004F23FA02F018BF404270474FF0000081
:1032A000704750EA013005D111F0004008BF6FF0BF
:1032B000004070474FF00000704700BF4A0011D235
:1032C00012F5001211D20DD56FF47873B3EB625280
:1032D0000ED44FEAC12343F0004343EA505323FA8C
:1032E00002F070474FF00000704750EA013002D101
:1032F0004FF0FF3070474FF0000070474FEA410237
:10330000B2F1E04324BFB3F5001CDCF1FE5C0DD943
:1033100001F0004C4FEAC0024CEA5070B2F1004F8D
:1033200040EB830008BF20F00100704711F0804F90
:1033300021D113F13872BCBF01F00040704741F455
:1033400080114FEA5252C2F11802C2F1200C10FA59
:103350000CF320FA02F018BF40F001004FEAC1233D
:103360004FEAD32303FA0CFC40EA0C0023FA02F3E1
:103370004FEA4303CCE77FEA625307D150EA0133B7
:103380001EBF4FF0FE4040F44000704701F0004087
:1033900040F0FE4040F40000704700BF80F0004065
:1033A00002E000BF81F0004142001FBF5FEA41031D
:1033B00092EA030F7FEA226C7FEA236C6AD04FEA1D
:1033C0001262D2EB1363C1BFD21841404840414062
:1033D000B8BF5B42192B88BF704710F0004F40F414
:1033E000000020F07F4018BF404211F0004F41F430
:1033F000000121F07F4118BF494292EA030F3FD0FC
:10340000A2F1010241FA03FC10EB0C00C3F120030E
:1034100001FA03F100F0004302D5494260EB40009D
:10342000B0F5000F13D3B0F1807F06D340084FEA08
:10343000310102F10102FE2A51D2B1F1004F40EBFD
:10344000C25008BF20F0010040EA03007047490065
:1034500040EB000010F4000FA2F10102EDD1B0FA30
:1034600080FCACF1080CB2EB0C0200FA0CF0AABF25
:1034700000EBC25052421843BCBFD04018437047C3
:1034800092F0000F81F4000106BF80F400000132C9
:10349000013BB5E74FEA41037FEA226C18BF7FEAA0
:1034A000236C21D092EA030F04D092F0000F08BFE2
:1034B0000846704790EA010F1CBF0020704712F0C9
:1034C0007F4F04D1400028BF40F00040704712F108
:1034D00000723CBF00F50000704700F0004343F06D
:1034E000FE4040F4000070477FEA226216BF0846A3
:1034F0007FEA23630146420206BF5FEA412390EA66
:10350000010F40F4800070474FF0000304E000BF5B
:1035100010F0004348BF40425FEA000C08BF70470C
:1035200043F0964301464FF000001CE050EA0102D0
:1035300008BF70474FF000030AE000BF50EA0102E5
:1035400008BF704711F0004302D5404261EB4101D2
:103550005FEA010C02BF84460146002043F0B643F7
:1035600008BFA3F18053A3F50003BCFA8CF2083A1C
:10357000A3EBC25310DB01FA02FC634400FA02FC25
:10358000C2F12002BCF1004F20FA02F243EB02002C
:1035900008BF20F00100704702F1200201FA02FC8E
:1035A000C2F1200250EA4C0021FA02F243EB020081
:1035B00008BF20EADC7070474FF0FF0C1CEAD052C5
:1035C0001EBF1CEAD15392EA0C0F93EA0C0F6FD086
:1035D0001A4480EA010C400218BF5FEA41211ED064
:1035E0004FF0006343EA501043EA5111A0FB013150
:1035F0000CF00040B1F5000F3EBF490041EAD37125
:103600005B0040EA010062F17F02FD2A1DD8B3F1A0
:10361000004F40EBC25008BF20F00100704790F00F
:10362000000F0CF0004C08BF49024CEA502040EA61
:1036300051207F3AC2BFD2F1FF0340EAC250704727
:1036400040F400004FF00003013A5DDC12F1190F65
:10365000DCBF00F000407047C2F10002410021FAD7
:1036600002F1C2F1200200FA02FC5FEA310040F1EF
:10367000000053EA4C0308BF20EADC70704792F068
:10368000000F00F0004C02BF400010F4000F013AA0
:10369000F9D040EA0C0093F0000F01F0004C02BF9B
:1036A000490011F4000F013BF9D041EA0C018FE70A
:1036B0000CEAD15392EA0C0F18BF93EA0C0F0AD010
:1036C00030F0004C18BF31F0004CD8D180EA010036
:1036D00000F00040704790F0000F17BF90F0004FCF
:1036E000084691F0000F91F0004F14D092EA0C0FB1
:1036F00001D142020FD193EA0C0F03D14B0218BF44
:10370000084608D180EA010000F0004040F0FE4089
:1037100040F40000704740F0FE4040F44000704725
:103720004FF0FF0C1CEAD0521EBF1CEAD15392EAA4
:103730000C0F93EA0C0F69D0A2EB030280EA010C94
:1037400049024FEA402037D04FF0805343EA11112D
:1037500043EA10130CF000408B4238BF5B0042F18B
:103760007D024FF4000C8B4224BF5B1A40EA0C0030
:10377000B3EB510F24BFA3EB510340EA5C00B3EB62
:10378000910F24BFA3EB910340EA9C00B3EBD10F50
:1037900024BFA3EBD10340EADC001B0118BF5FEAA2
:1037A0001C1CE0D1FD2A3FF650AF8B4240EBC250CB
:1037B00008BF20F0010070470CF0004C4CEA50208C
:1037C0007F32C2BFD2F1FF0340EAC250704740F4DB
:1037D00000004FF00003013A37E792F0000F00F0CD
:1037E000004C02BF400010F4000F013AF9D040EA4B
:1037F0000C0093F0000F01F0004C02BF490011F4DF
:10380000000F013BF9D041EA0C0195E70CEAD153D6
:1038100092EA0C0F08D142027FF47DAF93EA0C0FBD
:103820007FF470AF084676E793EA0C0F04D14B02A1
:103830003FF44CAF08466EE730F0004C18BF31F053
:10384000004CCAD130F000427FF45CAF31F000434D
:103850007FF43CAF5FE700BF0A22002100F0FAB816
:103860000A22002100F0F6B810B5054C13462CB121
:103870000A4601460220AFF3008010BD204610BD6D
:103880000000000010B5431E0A44914204D011F814
:10389000014B03F8014FF8E710BD03460244934281
:1038A00002D003F8011BFAE77047000038B5124B4D
:1038B00005461C68A36BD3B91820FDF71BFE43F225
:1038C0000E33A06303804AF6CD33438041F23423A4
:1038D00083804EF26D63C3804DF6EC630381052354
:1038E00043810B23838101220023C0E90423A36BBE
:1038F00000221D615A6138BD9000002010F8012B94
:1039000011F8013B012A28BF9A42F7D0D01A70471C
:10391000034613F8012B002AFBD1181A013870470F
:10392000034610B542B111F8014B013A03F8014BBF
:10393000002CF7D11A4400E010BD934202D003F8E6
:10394000014BFAE710BD00002DE9F0470F46804615
:103950003F48D0F800903D4615F8014B09EB0400B4
:10396000407800F0080000F0FF0608B12F46F2E7AB
:103970002D2C03D1BD1C7C78012603E02B2C04BF29
:103980007C78BD1C13B1102B0AD15BE0302C57D1D1
:10399000287800F0DF0058284DD16C7810230235CC
:1039A000002E14BF4FF0004C6FF0004CBCFBF3FA3C
:1039B0000027384603FB1ACC09EB040E9EF801E001
:1039C0001EF0040F01D0303C0BE01EF0030E1BD0A4
:1039D000BEF1010F0CBF4FF0370E4FF0570ECEEB7C
:1039E0000404A34210DDB7F1FF3F0AD0504506D8CA
:1039F00001D1644503DC03FB0040012701E04FF0E7
:103A0000FF3715F8014BD7E77B1C0CD1002E4FF088
:103A1000220314BF4FF000406FF00040C8F80030A0
:103A20002AB9BDE8F08706B1404272B107B1691EFC
:103A30001160BDE8F0873024002BB1D10823AFE737
:103A40000A23ADE7302CA3D0AAE7BDE8F08700BF7A
:103A50002C00002013460A46014602480068FFF782
:103A600073BF00BF9000002021000A0861000A080F
:103A70008D000A0891000A0800000000626C6E6B5D
:103A8000696E660076657200302E362E3300682D22
:103A90006265617400313000627566662D696E0082
:103AA0003130323400646576005061727469636C41
:103AB000652050686F746F6E006275696C640041B8
:103AC000707220313320323032302031373A333483
:103AD0003A32350000005D2000256900256C690040
:103AE00048756D69646974793A200020250900548D
:103AF000656D70657261747572653A2000202A43A5
:103B00002000436F6E6E656374696E6720746F206A
:103B100000696E0070776D00647700617700496E10
:103B200076616C696420485720636D643A200052C6
:103B300065616479202870696E673A20006D732989
:103B40002E00496E76616C6964206175746820741A
:103B50006F6B656E00436F6E6E656374206661699E
:103B60006C65642E20636F64653A20005061636B5E
:103B7000657420746F6F206269673A200052656136
:103B80006479005265646972656374696E67207454
:103B90006F20005365727665723A20004865617245
:103BA00074626561742074696D656F7574004C6F23
:103BB00067696E2074696D656F757400767700258E
:103BC000322E3366000D0A202020205F5F5F202008
:103BD0005F5F202020202020202020205F5F0D0A12
:103BE0002020202F205F20292F202F5F205F5F5F64
:103BF0005F5F20202F202F5F5F0D0A20202F205F86
:103C000020202F202F202F2F202F205F205C2F20DF
:103C100020275F2F0D0A202F5F5F5F5F2F5F2F5CD4
:103C20005F2C202F5F2F2F5F2F5F2F5C5F5C0D0AB3
:103C300020202020202020202F5F5F5F2F20763043
:103C40002E362E33206F6E205061727469636C655E
:103C50002050686F746F6E0D0A00626C796E6B2D68
:103C6000636C6F75642E636F6D00000083100A082B
:103C700083100A0883100A0883100A0883100A08B0
:103C800083100A0883100A0883100A0883100A08A0
:103C900083100A0883100A0883100A0883100A0890
:103CA00083100A0883100A0883100A0883100A0880
:103CB00083100A0883100A0883100A0883100A0870
:103CC00083100A0883100A0883100A0883100A0860
:103CD00083100A0883100A0883100A0883100A0850
:103CE00083100A0883100A0883100A0883100A0840
:103CF00083100A0883100A0883100A0883100A0830
:103D000083100A0883100A0883100A0883100A081F
:103D100083100A0883100A0883100A0883100A080F
:103D200083100A0883100A0883100A0883100A08FF
:103D300083100A0883100A0883100A0883100A08EF
:103D400083100A0883100A0883100A0883100A08DF
:103D500083100A0883100A0883100A0883100A08CF
:103D600083100A0883100A0883100A0883100A08BF
:103D700083100A0883100A0883100A0883100A08AF
:103D800083100A0883100A0883100A0883100A089F
:103D900083100A0883100A0883100A0883100A088F
:103DA00083100A0883100A0883100A0883100A087F
:103DB00083100A0883100A0883100A0883100A086F
:103DC00083100A0883100A0883100A0883100A085F
:103DD00083100A0883100A0883100A0883100A084F
:103DE00083100A0883100A0883100A0883100A083F
:103DF00083100A0883100A0883100A0883100A082F
:103E000083100A0883100A0883100A0883100A081E
:103E100083100A0883100A0883100A0883100A080E
:103E200083100A0883100A0883100A0883100A08FE
:103E300083100A0883100A0883100A0883100A08EE
:103E400083100A0883100A0883100A0883100A08DE
:103E500083100A0883100A0883100A0883100A08CE
:103E600083100A0883100A0883100A0881100A08C0
:103E7000B50C0A08CD0C0A0881100A0881100A083E
:103E800081100A0881100A0881100A0881100A08A6
:103E900081100A0881100A0881100A0881100A0896
:103EA00081100A0881100A0881100A0881100A0886
:103EB00081100A0881100A0881100A0881100A0876
:103EC00081100A0881100A0881100A0881100A0866
:103ED00081100A0881100A0881100A0881100A0856
:103EE00081100A0881100A0881100A0881100A0846
:103EF00081100A0881100A0881100A0881100A0836
:103F000081100A0881100A0881100A0881100A0825
:103F100081100A0881100A0881100A0881100A0815
:103F200081100A0881100A0881100A0881100A0805
:103F300081100A0881100A0881100A0881100A08F5
:103F400081100A0881100A0881100A0881100A08E5
:103F500081100A0881100A0881100A0881100A08D5
:103F600081100A0881100A0881100A0881100A08C5
:103F700081100A0881100A0881100A0881100A08B5
:103F800081100A0881100A0881100A0881100A08A5
:103F900081100A0881100A0881100A0881100A0895
:103FA00081100A0881100A0881100A0881100A0885
:103FB00081100A0881100A0881100A0881100A0875
:103FC00081100A0881100A0881100A0881100A0865
:103FD00081100A0881100A0881100A0881100A0855
:103FE00081100A0881100A0881100A0881100A0845
:103FF00081100A0881100A0881100A0881100A0835
:1040000081100A0881100A0881100A0881100A0824
:1040100081100A0881100A0881100A0881100A0814
:1040200081100A0881100A0881100A0881100A0804
:1040300081100A0881100A0881100A0881100A08F4
:1040400081100A0881100A0881100A0881100A08E4
:1040500081100A0881100A0881100A0881100A08D4
:1040600081100A0881100A0881100A080000000067
:10407000000000003D150A0887150A085F150A08A8
:104080003F150A0867150A086F150A0877150A0808
:104090007F150A080000000000000000D9150A087A
:1040A000C9150A08CB150A08626175640053657268
:1040B00069616C0055534253657269616C310074DB
:1040C00079706500706172616D00636D6400696490
:1040D00000686E64007374726D0066696C74006CC5
:1040E000766C0061646448616E646C657200726530
:1040F0006D6F766548616E646C657200656E756D96
:1041000048616E646C657273004A534F4E5374720B
:1041100065616D4C6F6748616E646C6572006170BB
:104120007000253031307520002564002C200028D7
:10413000293A2000205B00636F6465203D20006405
:10414000657461696C73203D20006C6E00666E00C2
:10415000636F64650064657461696C006E6F6E65A1
:1041600000747261636500696E666F007761726EDC
:10417000006572726F720070616E696300616C6CD1
:10418000000000000000000000000000A1160A0866
:10419000AB160A08B5160A08BF160A08C9160A0897
:1041A000D5160A08E1160A08ED160A08F5160A08D7
:1041B000FF160A0809170A086E616E006F7666001E
:1041C000696E66000000000000000000051A0A0881
:1041D0001D1A0A080000000000000000491B0A0820
:1041E0004F1B0A08671F0A085D1B0A084B1B0A08B9
:1041F000000000000000000005010A0845010A084F
:10420000051B0A081F1B0A08651C0A08CF1B0A08A1
:10421000A11B0A08471B0A08111D0A08811F0A086A
:10422000031C0A08DD1C0A085F1E0A08B11E0A08E2
:104230002F1B0A08231E0A08811B0A087769726966
:104240006E6700544350436C69656E7420736F63EE
:104250006B65743D2578005A00252B3033643A2570
:104260003032750025592D256D2D25645425483A89
:10427000254D3A2553257A0061736374696D650095
:10428000000000000000000001200A0851200A0878
:104290005F200A0885170A0815200A0837200A082F
:1042A00023200A084B200A0803200A0807200A08CE
:1042B000000000000000000009210A0859210A0836
:1042C00067210A0885170A0845210A080B210A08F0
:1042D00021210A0853210A0837210A0805210A0862
:1042E00000000000000000004B230A0841230A08D8
:1042F00037230A08A9220A082B230A081F230A08C1
:1043000013230A080B230A0801230A08F7220A08C4
:10431000B3220A080000202020202020202020286E
:10432000282828282020202020202020202020206D
:1043300020202020202088101010101010101010A5
:1043400010101010101004040404040404040404E5
:104350001010101010101041414141414101010164
:10436000010101010101010101010101010101013D
:10437000011010101010104242424242420202024A
:10438000020202020202020202020202020202020D
:1043900002101010102000000000000000000000BB
:1043A000000000000000000000000000000000000D
:1043B00000000000000000000000000000000000FD
:1043C00000000000000000000000000000000000ED
:1043D00000000000000000000000000000000000DD
:1043E00000000000000000000000000000000000CD
:1043F00000000000000000000000000000000000BD
:1044000000000000000000000000000000000000AC
:10441000000000000000000000000000000000009C
:10442000000000000000000000000000000000008C
:10443000000000000000000000000000000000007C
:10444000000000000000000000000000000000006C
:10445000000000000000000000000000000000005C
:10446000000000000000000000000000000000004C
:10447000000000000000000043000000B50D0A0825
:104480006D100A0871100A087D100A08B1100A0898
:10449000B5100A0891160A0871170A08E9190A08DE
:1044A000D11A0A08ED1F0A0855230A0859260A08D6
:1044B0000D270A08D1270A0855280A08D9280A080A
:0444C00000000000F8
:1044C4006A554F557A634C706A7375564F61726FB3
:1044D400586C32777351516B527247682D49386F5B
:1044E4000000000078420A08000E270715430A0856
:1044F4000000000018440A0838440A0858440A080E
:1045040000000000000000000000000000000000A7
:1045140078440A08000000000000000000000000C9
:104524000000000000000000000000000000000087
:104534000000000000000000000000000000000077
:104544000000000000000000000000000000000067
:044554003000002013
:10455800FFFFFFFF00000102030405060708090A20
:104568000B0C0D0E0F101112131415161718191A1B
:084578001B1C1D1E1F20280062
:044580007856341223
:04000005080A0020C5
:00000001FF
